{
  "_format": "hh-sol-artifact-1",
  "contractName": "MyEpicRandomSVG",
  "sourceName": "contracts/MyEpicRandomSVG.sol",
  "abi": [
    {
      "inputs": [],
      "stateMutability": "nonpayable",
      "type": "constructor"
    },
    {
      "anonymous": false,
      "inputs": [
        {
          "indexed": true,
          "internalType": "address",
          "name": "owner",
          "type": "address"
        },
        {
          "indexed": true,
          "internalType": "address",
          "name": "approved",
          "type": "address"
        },
        {
          "indexed": true,
          "internalType": "uint256",
          "name": "tokenId",
          "type": "uint256"
        }
      ],
      "name": "Approval",
      "type": "event"
    },
    {
      "anonymous": false,
      "inputs": [
        {
          "indexed": true,
          "internalType": "address",
          "name": "owner",
          "type": "address"
        },
        {
          "indexed": true,
          "internalType": "address",
          "name": "operator",
          "type": "address"
        },
        {
          "indexed": false,
          "internalType": "bool",
          "name": "approved",
          "type": "bool"
        }
      ],
      "name": "ApprovalForAll",
      "type": "event"
    },
    {
      "anonymous": false,
      "inputs": [
        {
          "indexed": false,
          "internalType": "address",
          "name": "sender",
          "type": "address"
        },
        {
          "indexed": false,
          "internalType": "uint256",
          "name": "tokenId",
          "type": "uint256"
        }
      ],
      "name": "NewEpicNFTMinted",
      "type": "event"
    },
    {
      "anonymous": false,
      "inputs": [
        {
          "indexed": true,
          "internalType": "address",
          "name": "from",
          "type": "address"
        },
        {
          "indexed": true,
          "internalType": "address",
          "name": "to",
          "type": "address"
        },
        {
          "indexed": true,
          "internalType": "uint256",
          "name": "tokenId",
          "type": "uint256"
        }
      ],
      "name": "Transfer",
      "type": "event"
    },
    {
      "inputs": [
        {
          "internalType": "address",
          "name": "to",
          "type": "address"
        },
        {
          "internalType": "uint256",
          "name": "tokenId",
          "type": "uint256"
        }
      ],
      "name": "approve",
      "outputs": [],
      "stateMutability": "nonpayable",
      "type": "function"
    },
    {
      "inputs": [
        {
          "internalType": "address",
          "name": "owner",
          "type": "address"
        }
      ],
      "name": "balanceOf",
      "outputs": [
        {
          "internalType": "uint256",
          "name": "",
          "type": "uint256"
        }
      ],
      "stateMutability": "view",
      "type": "function"
    },
    {
      "inputs": [
        {
          "internalType": "uint256",
          "name": "tokenId",
          "type": "uint256"
        }
      ],
      "name": "getApproved",
      "outputs": [
        {
          "internalType": "address",
          "name": "",
          "type": "address"
        }
      ],
      "stateMutability": "view",
      "type": "function"
    },
    {
      "inputs": [],
      "name": "getTotalMined",
      "outputs": [
        {
          "internalType": "uint256",
          "name": "",
          "type": "uint256"
        }
      ],
      "stateMutability": "view",
      "type": "function"
    },
    {
      "inputs": [
        {
          "internalType": "address",
          "name": "owner",
          "type": "address"
        },
        {
          "internalType": "address",
          "name": "operator",
          "type": "address"
        }
      ],
      "name": "isApprovedForAll",
      "outputs": [
        {
          "internalType": "bool",
          "name": "",
          "type": "bool"
        }
      ],
      "stateMutability": "view",
      "type": "function"
    },
    {
      "inputs": [],
      "name": "makeAnEpicNFT",
      "outputs": [],
      "stateMutability": "nonpayable",
      "type": "function"
    },
    {
      "inputs": [],
      "name": "name",
      "outputs": [
        {
          "internalType": "string",
          "name": "",
          "type": "string"
        }
      ],
      "stateMutability": "view",
      "type": "function"
    },
    {
      "inputs": [
        {
          "internalType": "uint256",
          "name": "tokenId",
          "type": "uint256"
        }
      ],
      "name": "ownerOf",
      "outputs": [
        {
          "internalType": "address",
          "name": "",
          "type": "address"
        }
      ],
      "stateMutability": "view",
      "type": "function"
    },
    {
      "inputs": [
        {
          "internalType": "uint256",
          "name": "tokenId",
          "type": "uint256"
        }
      ],
      "name": "pickRandomFirstWord",
      "outputs": [
        {
          "internalType": "string",
          "name": "",
          "type": "string"
        }
      ],
      "stateMutability": "view",
      "type": "function"
    },
    {
      "inputs": [
        {
          "internalType": "uint256",
          "name": "tokenId",
          "type": "uint256"
        }
      ],
      "name": "pickRandomSecondWord",
      "outputs": [
        {
          "internalType": "string",
          "name": "",
          "type": "string"
        }
      ],
      "stateMutability": "view",
      "type": "function"
    },
    {
      "inputs": [
        {
          "internalType": "uint256",
          "name": "tokenId",
          "type": "uint256"
        }
      ],
      "name": "pickRandomThirdWord",
      "outputs": [
        {
          "internalType": "string",
          "name": "",
          "type": "string"
        }
      ],
      "stateMutability": "view",
      "type": "function"
    },
    {
      "inputs": [
        {
          "internalType": "address",
          "name": "from",
          "type": "address"
        },
        {
          "internalType": "address",
          "name": "to",
          "type": "address"
        },
        {
          "internalType": "uint256",
          "name": "tokenId",
          "type": "uint256"
        }
      ],
      "name": "safeTransferFrom",
      "outputs": [],
      "stateMutability": "nonpayable",
      "type": "function"
    },
    {
      "inputs": [
        {
          "internalType": "address",
          "name": "from",
          "type": "address"
        },
        {
          "internalType": "address",
          "name": "to",
          "type": "address"
        },
        {
          "internalType": "uint256",
          "name": "tokenId",
          "type": "uint256"
        },
        {
          "internalType": "bytes",
          "name": "_data",
          "type": "bytes"
        }
      ],
      "name": "safeTransferFrom",
      "outputs": [],
      "stateMutability": "nonpayable",
      "type": "function"
    },
    {
      "inputs": [
        {
          "internalType": "address",
          "name": "operator",
          "type": "address"
        },
        {
          "internalType": "bool",
          "name": "approved",
          "type": "bool"
        }
      ],
      "name": "setApprovalForAll",
      "outputs": [],
      "stateMutability": "nonpayable",
      "type": "function"
    },
    {
      "inputs": [
        {
          "internalType": "bytes4",
          "name": "interfaceId",
          "type": "bytes4"
        }
      ],
      "name": "supportsInterface",
      "outputs": [
        {
          "internalType": "bool",
          "name": "",
          "type": "bool"
        }
      ],
      "stateMutability": "view",
      "type": "function"
    },
    {
      "inputs": [],
      "name": "symbol",
      "outputs": [
        {
          "internalType": "string",
          "name": "",
          "type": "string"
        }
      ],
      "stateMutability": "view",
      "type": "function"
    },
    {
      "inputs": [
        {
          "internalType": "uint256",
          "name": "tokenId",
          "type": "uint256"
        }
      ],
      "name": "tokenURI",
      "outputs": [
        {
          "internalType": "string",
          "name": "",
          "type": "string"
        }
      ],
      "stateMutability": "view",
      "type": "function"
    },
    {
      "inputs": [
        {
          "internalType": "address",
          "name": "from",
          "type": "address"
        },
        {
          "internalType": "address",
          "name": "to",
          "type": "address"
        },
        {
          "internalType": "uint256",
          "name": "tokenId",
          "type": "uint256"
        }
      ],
      "name": "transferFrom",
      "outputs": [],
      "stateMutability": "nonpayable",
      "type": "function"
    }
  ],
  "bytecode": "0x608060405260405180610160016040528061012f815260200162003f3661012f9139600890805190602001906200003892919062000309565b5060405180602001604052806040518060400160405280600581526020017f4150504c4500000000000000000000000000000000000000000000000000000081525081525060099060016200008f9291906200039a565b5060405180602001604052806040518060400160405280600581526020017f4150504c45000000000000000000000000000000000000000000000000000000815250815250600a906001620000e69291906200039a565b5060405180602001604052806040518060400160405280600581526020017f4150504c45000000000000000000000000000000000000000000000000000000815250815250600b9060016200013d9291906200039a565b503480156200014b57600080fd5b506040518060400160405280600981526020017f5371756172654e465400000000000000000000000000000000000000000000008152506040518060400160405280600681526020017f53515541524500000000000000000000000000000000000000000000000000008152508160009080519060200190620001d092919062000309565b508060019080519060200190620001e992919062000309565b505050620002376040518060400160405280601e81526020017f54686973206973206d79204e465420636f6e74726163742e20576f61682100008152506200023d60201b620012a61760201c565b620005bb565b620002dd81604051602401620002549190620004cf565b6040516020818303038152906040527f41304fac000000000000000000000000000000000000000000000000000000007bffffffffffffffffffffffffffffffffffffffffffffffffffffffff19166020820180517bffffffffffffffffffffffffffffffffffffffffffffffffffffffff8381831617835250505050620002e060201b60201c565b50565b60008151905060006a636f6e736f6c652e6c6f679050602083016000808483855afa5050505050565b828054620003179062000545565b90600052602060002090601f0160209004810192826200033b576000855562000387565b82601f106200035657805160ff191683800117855562000387565b8280016001018555821562000387579182015b828111156200038657825182559160200191906001019062000369565b5b50905062000396919062000401565b5090565b828054828255906000526020600020908101928215620003ee579160200282015b82811115620003ed578251829080519060200190620003dc92919062000309565b5091602001919060010190620003bb565b5b509050620003fd919062000420565b5090565b5b808211156200041c57600081600090555060010162000402565b5090565b5b808211156200044457600081816200043a919062000448565b5060010162000421565b5090565b508054620004569062000545565b6000825580601f106200046a57506200048b565b601f0160209004906000526020600020908101906200048a919062000401565b5b50565b60006200049b82620004f3565b620004a78185620004fe565b9350620004b98185602086016200050f565b620004c481620005aa565b840191505092915050565b60006020820190508181036000830152620004eb81846200048e565b905092915050565b600081519050919050565b600082825260208201905092915050565b60005b838110156200052f57808201518184015260208101905062000512565b838111156200053f576000848401525b50505050565b600060028204905060018216806200055e57607f821691505b602082108114156200057557620005746200057b565b5b50919050565b7f4e487b7100000000000000000000000000000000000000000000000000000000600052602260045260246000fd5b6000601f19601f8301169050919050565b61396b80620005cb6000396000f3fe608060405234801561001057600080fd5b50600436106101165760003560e01c80638c2d1549116100a2578063b88d4fde11610071578063b88d4fde14610305578063c575757a14610321578063c87b56dd14610351578063de9d132f14610381578063e985e9c51461038b57610116565b80638c2d15491461027d57806395d89b411461029b578063a22cb465146102b9578063b187301f146102d557610116565b806323b872dd116100e957806323b872dd146101b55780632de38d68146101d157806342842e0e146102015780636352211e1461021d57806370a082311461024d57610116565b806301ffc9a71461011b57806306fdde031461014b578063081812fc14610169578063095ea7b314610199575b600080fd5b61013560048036038101906101309190612539565b6103bb565b60405161014291906131c1565b60405180910390f35b61015361049d565b60405161016091906131dc565b60405180910390f35b610183600480360381019061017e919061258b565b61052f565b6040516101909190613131565b60405180910390f35b6101b360048036038101906101ae91906124fd565b6105b4565b005b6101cf60048036038101906101ca91906123f7565b6106cc565b005b6101eb60048036038101906101e6919061258b565b61072c565b6040516101f891906131dc565b60405180910390f35b61021b600480360381019061021691906123f7565b61084a565b005b6102376004803603810190610232919061258b565b61086a565b6040516102449190613131565b60405180910390f35b61026760048036038101906102629190612392565b61091c565b604051610274919061345c565b60405180910390f35b6102856109d4565b604051610292919061345c565b60405180910390f35b6102a36109e5565b6040516102b091906131dc565b60405180910390f35b6102d360048036038101906102ce91906124c1565b610a77565b005b6102ef60048036038101906102ea919061258b565b610bf8565b6040516102fc91906131dc565b60405180910390f35b61031f600480360381019061031a9190612446565b610d16565b005b61033b6004803603810190610336919061258b565b610d78565b60405161034891906131dc565b60405180910390f35b61036b6004803603810190610366919061258b565b610e96565b60405161037891906131dc565b60405180910390f35b610389610fe8565b005b6103a560048036038101906103a091906123bb565b611212565b6040516103b291906131c1565b60405180910390f35b60007f80ac58cd000000000000000000000000000000000000000000000000000000007bffffffffffffffffffffffffffffffffffffffffffffffffffffffff1916827bffffffffffffffffffffffffffffffffffffffffffffffffffffffff1916148061048657507f5b5e139f000000000000000000000000000000000000000000000000000000007bffffffffffffffffffffffffffffffffffffffffffffffffffffffff1916827bffffffffffffffffffffffffffffffffffffffffffffffffffffffff1916145b8061049657506104958261133f565b5b9050919050565b6060600080546104ac906136fb565b80601f01602080910402602001604051908101604052809291908181526020018280546104d8906136fb565b80156105255780601f106104fa57610100808354040283529160200191610525565b820191906000526020600020905b81548152906001019060200180831161050857829003601f168201915b5050505050905090565b600061053a826113a9565b610579576040517f08c379a00000000000000000000000000000000000000000000000000000000081526004016105709061339c565b60405180910390fd5b6004600083815260200190815260200160002060009054906101000a900473ffffffffffffffffffffffffffffffffffffffff169050919050565b60006105bf8261086a565b90508073ffffffffffffffffffffffffffffffffffffffff168373ffffffffffffffffffffffffffffffffffffffff161415610630576040517f08c379a0000000000000000000000000000000000000000000000000000000008152600401610627906133fc565b60405180910390fd5b8073ffffffffffffffffffffffffffffffffffffffff1661064f611415565b73ffffffffffffffffffffffffffffffffffffffff16148061067e575061067d81610678611415565b611212565b5b6106bd576040517f08c379a00000000000000000000000000000000000000000000000000000000081526004016106b4906132dc565b60405180910390fd5b6106c7838361141d565b505050565b6106dd6106d7611415565b826114d6565b61071c576040517f08c379a00000000000000000000000000000000000000000000000000000000081526004016107139061341c565b60405180910390fd5b6107278383836115b4565b505050565b6060600061076061073c84611810565b60405160200161074c91906130ed565b6040516020818303038152906040526119bd565b9050600980549050816107739190613776565b9050600981815481106107af577f4e487b7100000000000000000000000000000000000000000000000000000000600052603260045260246000fd5b9060005260206000200180546107c4906136fb565b80601f01602080910402602001604051908101604052809291908181526020018280546107f0906136fb565b801561083d5780601f106108125761010080835404028352916020019161083d565b820191906000526020600020905b81548152906001019060200180831161082057829003601f168201915b5050505050915050919050565b61086583838360405180602001604052806000815250610d16565b505050565b6000806002600084815260200190815260200160002060009054906101000a900473ffffffffffffffffffffffffffffffffffffffff169050600073ffffffffffffffffffffffffffffffffffffffff168173ffffffffffffffffffffffffffffffffffffffff161415610913576040517f08c379a000000000000000000000000000000000000000000000000000000000815260040161090a9061331c565b60405180910390fd5b80915050919050565b60008073ffffffffffffffffffffffffffffffffffffffff168273ffffffffffffffffffffffffffffffffffffffff16141561098d576040517f08c379a0000000000000000000000000000000000000000000000000000000008152600401610984906132fc565b60405180910390fd5b600360008373ffffffffffffffffffffffffffffffffffffffff1673ffffffffffffffffffffffffffffffffffffffff168152602001908152602001600020549050919050565b60006109e060076119f0565b905090565b6060600180546109f4906136fb565b80601f0160208091040260200160405190810160405280929190818152602001828054610a20906136fb565b8015610a6d5780601f10610a4257610100808354040283529160200191610a6d565b820191906000526020600020905b815481529060010190602001808311610a5057829003601f168201915b5050505050905090565b610a7f611415565b73ffffffffffffffffffffffffffffffffffffffff168273ffffffffffffffffffffffffffffffffffffffff161415610aed576040517f08c379a0000000000000000000000000000000000000000000000000000000008152600401610ae49061329c565b60405180910390fd5b8060056000610afa611415565b73ffffffffffffffffffffffffffffffffffffffff1673ffffffffffffffffffffffffffffffffffffffff16815260200190815260200160002060008473ffffffffffffffffffffffffffffffffffffffff1673ffffffffffffffffffffffffffffffffffffffff16815260200190815260200160002060006101000a81548160ff0219169083151502179055508173ffffffffffffffffffffffffffffffffffffffff16610ba7611415565b73ffffffffffffffffffffffffffffffffffffffff167f17307eab39ab6107e8899845ad3d59bd9653f200f220920489ca2b5937696c3183604051610bec91906131c1565b60405180910390a35050565b60606000610c2c610c0884611810565b604051602001610c189190613086565b6040516020818303038152906040526119bd565b9050600a8054905081610c3f9190613776565b9050600a8181548110610c7b577f4e487b7100000000000000000000000000000000000000000000000000000000600052603260045260246000fd5b906000526020600020018054610c90906136fb565b80601f0160208091040260200160405190810160405280929190818152602001828054610cbc906136fb565b8015610d095780601f10610cde57610100808354040283529160200191610d09565b820191906000526020600020905b815481529060010190602001808311610cec57829003601f168201915b5050505050915050919050565b610d27610d21611415565b836114d6565b610d66576040517f08c379a0000000000000000000000000000000000000000000000000000000008152600401610d5d9061341c565b60405180910390fd5b610d72848484846119fe565b50505050565b60606000610dac610d8884611810565b604051602001610d989190613064565b6040516020818303038152906040526119bd565b9050600b8054905081610dbf9190613776565b9050600b8181548110610dfb577f4e487b7100000000000000000000000000000000000000000000000000000000600052603260045260246000fd5b906000526020600020018054610e10906136fb565b80601f0160208091040260200160405190810160405280929190818152602001828054610e3c906136fb565b8015610e895780601f10610e5e57610100808354040283529160200191610e89565b820191906000526020600020905b815481529060010190602001808311610e6c57829003601f168201915b5050505050915050919050565b6060610ea1826113a9565b610ee0576040517f08c379a0000000000000000000000000000000000000000000000000000000008152600401610ed79061337c565b60405180910390fd5b6000600660008481526020019081526020016000208054610f00906136fb565b80601f0160208091040260200160405190810160405280929190818152602001828054610f2c906136fb565b8015610f795780601f10610f4e57610100808354040283529160200191610f79565b820191906000526020600020905b815481529060010190602001808311610f5c57829003601f168201915b505050505090506000610f8a611a5a565b9050600081511415610fa0578192505050610fe3565b600082511115610fd5578082604051602001610fbd929190612fe0565b60405160208183030381529060405292505050610fe3565b610fde84611a71565b925050505b919050565b6000610ff460076119f0565b905060328110611039576040517f08c379a00000000000000000000000000000000000000000000000000000000081526004016110309061343c565b60405180910390fd5b60006110448261072c565b9050600061105183610bf8565b9050600061105e84610d78565b9050600083838360405160200161107793929190613004565b6040516020818303038152906040529050600060088260405160200161109e929190613035565b604051602081830303815290604052905060006110e3836110be84611b18565b6040516020016110cf9291906130a8565b604051602081830303815290604052611b18565b90506000816040516020016110f8919061310f565b60405160208183030381529060405290506111476040518060400160405280601581526020017f0a2d2d2d2d2d2d2d2d2d2d2d2d2d2d2d2d2d2d2d2d00000000000000000000008152506112a6565b611150816112a6565b61118e6040518060400160405280601581526020017f2d2d2d2d2d2d2d2d2d2d2d2d2d2d2d2d2d2d2d2d0a00000000000000000000008152506112a6565b6111983389611cd6565b6111a28882611cf4565b6111ac6007611d68565b6111cf6040518060600160405280602581526020016138d1602591398933611d7e565b7febb98688741ffa4c7589bf325de30cf7becb63de567842e1ccdb6cb949fdc82c3389604051611200929190613198565b60405180910390a15050505050505050565b6000600560008473ffffffffffffffffffffffffffffffffffffffff1673ffffffffffffffffffffffffffffffffffffffff16815260200190815260200160002060008373ffffffffffffffffffffffffffffffffffffffff1673ffffffffffffffffffffffffffffffffffffffff16815260200190815260200160002060009054906101000a900460ff16905092915050565b61133c816040516024016112ba91906131dc565b6040516020818303038152906040527f41304fac000000000000000000000000000000000000000000000000000000007bffffffffffffffffffffffffffffffffffffffffffffffffffffffff19166020820180517bffffffffffffffffffffffffffffffffffffffffffffffffffffffff8381831617835250505050611e1d565b50565b60007f01ffc9a7000000000000000000000000000000000000000000000000000000007bffffffffffffffffffffffffffffffffffffffffffffffffffffffff1916827bffffffffffffffffffffffffffffffffffffffffffffffffffffffff1916149050919050565b60008073ffffffffffffffffffffffffffffffffffffffff166002600084815260200190815260200160002060009054906101000a900473ffffffffffffffffffffffffffffffffffffffff1673ffffffffffffffffffffffffffffffffffffffff1614159050919050565b600033905090565b816004600083815260200190815260200160002060006101000a81548173ffffffffffffffffffffffffffffffffffffffff021916908373ffffffffffffffffffffffffffffffffffffffff160217905550808273ffffffffffffffffffffffffffffffffffffffff166114908361086a565b73ffffffffffffffffffffffffffffffffffffffff167f8c5be1e5ebec7d5bd14f71427d1e84f3dd0314c0f7b2291e5b200ac8c7c3b92560405160405180910390a45050565b60006114e1826113a9565b611520576040517f08c379a0000000000000000000000000000000000000000000000000000000008152600401611517906132bc565b60405180910390fd5b600061152b8361086a565b90508073ffffffffffffffffffffffffffffffffffffffff168473ffffffffffffffffffffffffffffffffffffffff16148061159a57508373ffffffffffffffffffffffffffffffffffffffff166115828461052f565b73ffffffffffffffffffffffffffffffffffffffff16145b806115ab57506115aa8185611212565b5b91505092915050565b8273ffffffffffffffffffffffffffffffffffffffff166115d48261086a565b73ffffffffffffffffffffffffffffffffffffffff161461162a576040517f08c379a0000000000000000000000000000000000000000000000000000000008152600401611621906133bc565b60405180910390fd5b600073ffffffffffffffffffffffffffffffffffffffff168273ffffffffffffffffffffffffffffffffffffffff16141561169a576040517f08c379a00000000000000000000000000000000000000000000000000000000081526004016116919061327c565b60405180910390fd5b6116a5838383611e46565b6116b060008261141d565b6001600360008573ffffffffffffffffffffffffffffffffffffffff1673ffffffffffffffffffffffffffffffffffffffff16815260200190815260200160002060008282546117009190613611565b925050819055506001600360008473ffffffffffffffffffffffffffffffffffffffff1673ffffffffffffffffffffffffffffffffffffffff16815260200190815260200160002060008282546117579190613530565b92505081905550816002600083815260200190815260200160002060006101000a81548173ffffffffffffffffffffffffffffffffffffffff021916908373ffffffffffffffffffffffffffffffffffffffff160217905550808273ffffffffffffffffffffffffffffffffffffffff168473ffffffffffffffffffffffffffffffffffffffff167fddf252ad1be2c89b69c2b068fc378daa952ba7f163c4a11628f55a4df523b3ef60405160405180910390a4505050565b60606000821415611858576040518060400160405280600181526020017f300000000000000000000000000000000000000000000000000000000000000081525090506119b8565b600082905060005b6000821461188a5780806118739061372d565b915050600a826118839190613586565b9150611860565b60008167ffffffffffffffff8111156118cc577f4e487b7100000000000000000000000000000000000000000000000000000000600052604160045260246000fd5b6040519080825280601f01601f1916602001820160405280156118fe5781602001600182028036833780820191505090505b5090505b600085146119b1576001826119179190613611565b9150600a856119269190613776565b60306119329190613530565b60f81b81838151811061196e577f4e487b7100000000000000000000000000000000000000000000000000000000600052603260045260246000fd5b60200101907effffffffffffffffffffffffffffffffffffffffffffffffffffffffffffff1916908160001a905350600a856119aa9190613586565b9450611902565b8093505050505b919050565b6000816040516020016119d09190612fc9565b6040516020818303038152906040528051906020012060001c9050919050565b600081600001549050919050565b611a098484846115b4565b611a1584848484611e4b565b611a54576040517f08c379a0000000000000000000000000000000000000000000000000000000008152600401611a4b9061323c565b60405180910390fd5b50505050565b606060405180602001604052806000815250905090565b6060611a7c826113a9565b611abb576040517f08c379a0000000000000000000000000000000000000000000000000000000008152600401611ab2906133dc565b60405180910390fd5b6000611ac5611a5a565b90506000815111611ae55760405180602001604052806000815250611b10565b80611aef84611810565b604051602001611b00929190612fe0565b6040516020818303038152906040525b915050919050565b60606000825190506000811415611b415760405180602001604052806000815250915050611cd1565b60006003600283611b529190613530565b611b5c9190613586565b6004611b6891906135b7565b90506000602082611b799190613530565b67ffffffffffffffff811115611bb8577f4e487b7100000000000000000000000000000000000000000000000000000000600052604160045260246000fd5b6040519080825280601f01601f191660200182016040528015611bea5781602001600182028036833780820191505090505b50905060006040518060600160405280604081526020016138f6604091399050600181016020830160005b86811015611c8e5760038101905062ffffff818a015116603f8160121c168401518060081b905060ff603f83600c1c1686015116810190508060081b905060ff603f8360061c1686015116810190508060081b905060ff603f831686015116810190508060e01b90508084526004840193505050611c15565b506003860660018114611ca85760028114611cb857611cc3565b613d3d60f01b6002830352611cc3565b603d60f81b60018303525b508484525050819450505050505b919050565b611cf0828260405180602001604052806000815250611fe2565b5050565b611cfd826113a9565b611d3c576040517f08c379a0000000000000000000000000000000000000000000000000000000008152600401611d339061333c565b60405180910390fd5b80600660008481526020019081526020016000209080519060200190611d6392919061221e565b505050565b6001816000016000828254019250508190555050565b611e18838383604051602401611d96939291906131fe565b6040516020818303038152906040527fe3849f79000000000000000000000000000000000000000000000000000000007bffffffffffffffffffffffffffffffffffffffffffffffffffffffff19166020820180517bffffffffffffffffffffffffffffffffffffffffffffffffffffffff8381831617835250505050611e1d565b505050565b60008151905060006a636f6e736f6c652e6c6f679050602083016000808483855afa5050505050565b505050565b6000611e6c8473ffffffffffffffffffffffffffffffffffffffff1661203d565b15611fd5578373ffffffffffffffffffffffffffffffffffffffff1663150b7a02611e95611415565b8786866040518563ffffffff1660e01b8152600401611eb7949392919061314c565b602060405180830381600087803b158015611ed157600080fd5b505af1925050508015611f0257506040513d601f19601f82011682018060405250810190611eff9190612562565b60015b611f85573d8060008114611f32576040519150601f19603f3d011682016040523d82523d6000602084013e611f37565b606091505b50600081511415611f7d576040517f08c379a0000000000000000000000000000000000000000000000000000000008152600401611f749061323c565b60405180910390fd5b805181602001fd5b63150b7a0260e01b7bffffffffffffffffffffffffffffffffffffffffffffffffffffffff1916817bffffffffffffffffffffffffffffffffffffffffffffffffffffffff191614915050611fda565b600190505b949350505050565b611fec8383612050565b611ff96000848484611e4b565b612038576040517f08c379a000000000000000000000000000000000000000000000000000000000815260040161202f9061323c565b60405180910390fd5b505050565b600080823b905060008111915050919050565b600073ffffffffffffffffffffffffffffffffffffffff168273ffffffffffffffffffffffffffffffffffffffff1614156120c0576040517f08c379a00000000000000000000000000000000000000000000000000000000081526004016120b79061335c565b60405180910390fd5b6120c9816113a9565b15612109576040517f08c379a00000000000000000000000000000000000000000000000000000000081526004016121009061325c565b60405180910390fd5b61211560008383611e46565b6001600360008473ffffffffffffffffffffffffffffffffffffffff1673ffffffffffffffffffffffffffffffffffffffff16815260200190815260200160002060008282546121659190613530565b92505081905550816002600083815260200190815260200160002060006101000a81548173ffffffffffffffffffffffffffffffffffffffff021916908373ffffffffffffffffffffffffffffffffffffffff160217905550808273ffffffffffffffffffffffffffffffffffffffff16600073ffffffffffffffffffffffffffffffffffffffff167fddf252ad1be2c89b69c2b068fc378daa952ba7f163c4a11628f55a4df523b3ef60405160405180910390a45050565b82805461222a906136fb565b90600052602060002090601f01602090048101928261224c5760008555612293565b82601f1061226557805160ff1916838001178555612293565b82800160010185558215612293579182015b82811115612292578251825591602001919060010190612277565b5b5090506122a091906122a4565b5090565b5b808211156122bd5760008160009055506001016122a5565b5090565b60006122d46122cf846134a8565b613477565b9050828152602081018484840111156122ec57600080fd5b6122f78482856136b9565b509392505050565b60008135905061230e81613874565b92915050565b6000813590506123238161388b565b92915050565b600081359050612338816138a2565b92915050565b60008151905061234d816138a2565b92915050565b600082601f83011261236457600080fd5b81356123748482602086016122c1565b91505092915050565b60008135905061238c816138b9565b92915050565b6000602082840312156123a457600080fd5b60006123b2848285016122ff565b91505092915050565b600080604083850312156123ce57600080fd5b60006123dc858286016122ff565b92505060206123ed858286016122ff565b9150509250929050565b60008060006060848603121561240c57600080fd5b600061241a868287016122ff565b935050602061242b868287016122ff565b925050604061243c8682870161237d565b9150509250925092565b6000806000806080858703121561245c57600080fd5b600061246a878288016122ff565b945050602061247b878288016122ff565b935050604061248c8782880161237d565b925050606085013567ffffffffffffffff8111156124a957600080fd5b6124b587828801612353565b91505092959194509250565b600080604083850312156124d457600080fd5b60006124e2858286016122ff565b92505060206124f385828601612314565b9150509250929050565b6000806040838503121561251057600080fd5b600061251e858286016122ff565b925050602061252f8582860161237d565b9150509250929050565b60006020828403121561254b57600080fd5b600061255984828501612329565b91505092915050565b60006020828403121561257457600080fd5b60006125828482850161233e565b91505092915050565b60006020828403121561259d57600080fd5b60006125ab8482850161237d565b91505092915050565b6125bd81613645565b82525050565b6125cc81613657565b82525050565b60006125dd826134ed565b6125e78185613503565b93506125f78185602086016136c8565b61260081613863565b840191505092915050565b6000612616826134f8565b6126208185613514565b93506126308185602086016136c8565b61263981613863565b840191505092915050565b600061264f826134f8565b6126598185613525565b93506126698185602086016136c8565b80840191505092915050565b60008154612682816136fb565b61268c8186613525565b945060018216600081146126a757600181146126b8576126eb565b60ff198316865281860193506126eb565b6126c1856134d8565b60005b838110156126e3578154818901526001820191506020810190506126c4565b838801955050505b50505092915050565b6000612701603283613514565b91507f4552433732313a207472616e7366657220746f206e6f6e20455243373231526560008301527f63656976657220696d706c656d656e74657200000000000000000000000000006020830152604082019050919050565b6000612767601c83613514565b91507f4552433732313a20746f6b656e20616c7265616479206d696e746564000000006000830152602082019050919050565b60006127a7600a83613525565b91507f54484952445f574f5244000000000000000000000000000000000000000000006000830152600a82019050919050565b60006127e7602483613514565b91507f4552433732313a207472616e7366657220746f20746865207a65726f2061646460008301527f72657373000000000000000000000000000000000000000000000000000000006020830152604082019050919050565b600061284d601983613514565b91507f4552433732313a20617070726f766520746f2063616c6c6572000000000000006000830152602082019050919050565b600061288d606383613525565b91507f222c20226465736372697074696f6e223a20224120686967686c79206163636c60008301527f61696d656420636f6c6c656374696f6e206f6620737175617265732e222c202260208301527f696d616765223a2022646174613a696d6167652f7376672b786d6c3b6261736560408301527f36342c00000000000000000000000000000000000000000000000000000000006060830152606382019050919050565b600061293f600b83613525565b91507f5345434f4e445f574f52440000000000000000000000000000000000000000006000830152600b82019050919050565b600061297f602c83613514565b91507f4552433732313a206f70657261746f7220717565727920666f72206e6f6e657860008301527f697374656e7420746f6b656e00000000000000000000000000000000000000006020830152604082019050919050565b60006129e5600d83613525565b91507f3c2f746578743e3c2f7376673e000000000000000000000000000000000000006000830152600d82019050919050565b6000612a25603883613514565b91507f4552433732313a20617070726f76652063616c6c6572206973206e6f74206f7760008301527f6e6572206e6f7220617070726f76656420666f7220616c6c00000000000000006020830152604082019050919050565b6000612a8b602a83613514565b91507f4552433732313a2062616c616e636520717565727920666f7220746865207a6560008301527f726f2061646472657373000000000000000000000000000000000000000000006020830152604082019050919050565b6000612af1602983613514565b91507f4552433732313a206f776e657220717565727920666f72206e6f6e657869737460008301527f656e7420746f6b656e00000000000000000000000000000000000000000000006020830152604082019050919050565b6000612b57602e83613514565b91507f45524337323155524953746f726167653a2055524920736574206f66206e6f6e60008301527f6578697374656e7420746f6b656e0000000000000000000000000000000000006020830152604082019050919050565b6000612bbd600283613525565b91507f227d0000000000000000000000000000000000000000000000000000000000006000830152600282019050919050565b6000612bfd602083613514565b91507f4552433732313a206d696e7420746f20746865207a65726f20616464726573736000830152602082019050919050565b6000612c3d603183613514565b91507f45524337323155524953746f726167653a2055524920717565727920666f722060008301527f6e6f6e6578697374656e7420746f6b656e0000000000000000000000000000006020830152604082019050919050565b6000612ca3602c83613514565b91507f4552433732313a20617070726f76656420717565727920666f72206e6f6e657860008301527f697374656e7420746f6b656e00000000000000000000000000000000000000006020830152604082019050919050565b6000612d09602983613514565b91507f4552433732313a207472616e73666572206f6620746f6b656e2074686174206960008301527f73206e6f74206f776e00000000000000000000000000000000000000000000006020830152604082019050919050565b6000612d6f602f83613514565b91507f4552433732314d657461646174613a2055524920717565727920666f72206e6f60008301527f6e6578697374656e7420746f6b656e00000000000000000000000000000000006020830152604082019050919050565b6000612dd5600a83613525565b91507f7b226e616d65223a2022000000000000000000000000000000000000000000006000830152600a82019050919050565b6000612e15602183613514565b91507f4552433732313a20617070726f76616c20746f2063757272656e74206f776e6560008301527f72000000000000000000000000000000000000000000000000000000000000006020830152604082019050919050565b6000612e7b600a83613525565b91507f46495253545f574f5244000000000000000000000000000000000000000000006000830152600a82019050919050565b6000612ebb601d83613525565b91507f646174613a6170706c69636174696f6e2f6a736f6e3b6261736536342c0000006000830152601d82019050919050565b6000612efb603183613514565b91507f4552433732313a207472616e736665722063616c6c6572206973206e6f74206f60008301527f776e6572206e6f7220617070726f7665640000000000000000000000000000006020830152604082019050919050565b6000612f61602283613514565b91507f4e6f206d6f7265207468616e203530204e4654732063616e206265206d696e7460008301527f65640000000000000000000000000000000000000000000000000000000000006020830152604082019050919050565b612fc3816136af565b82525050565b6000612fd58284612644565b915081905092915050565b6000612fec8285612644565b9150612ff88284612644565b91508190509392505050565b60006130108286612644565b915061301c8285612644565b91506130288284612644565b9150819050949350505050565b60006130418285612675565b915061304d8284612644565b9150613058826129d8565b91508190509392505050565b600061306f8261279a565b915061307b8284612644565b915081905092915050565b600061309182612932565b915061309d8284612644565b915081905092915050565b60006130b382612dc8565b91506130bf8285612644565b91506130ca82612880565b91506130d68284612644565b91506130e182612bb0565b91508190509392505050565b60006130f882612e6e565b91506131048284612644565b915081905092915050565b600061311a82612eae565b91506131268284612644565b915081905092915050565b600060208201905061314660008301846125b4565b92915050565b600060808201905061316160008301876125b4565b61316e60208301866125b4565b61317b6040830185612fba565b818103606083015261318d81846125d2565b905095945050505050565b60006040820190506131ad60008301856125b4565b6131ba6020830184612fba565b9392505050565b60006020820190506131d660008301846125c3565b92915050565b600060208201905081810360008301526131f6818461260b565b905092915050565b60006060820190508181036000830152613218818661260b565b90506132276020830185612fba565b61323460408301846125b4565b949350505050565b60006020820190508181036000830152613255816126f4565b9050919050565b600060208201905081810360008301526132758161275a565b9050919050565b60006020820190508181036000830152613295816127da565b9050919050565b600060208201905081810360008301526132b581612840565b9050919050565b600060208201905081810360008301526132d581612972565b9050919050565b600060208201905081810360008301526132f581612a18565b9050919050565b6000602082019050818103600083015261331581612a7e565b9050919050565b6000602082019050818103600083015261333581612ae4565b9050919050565b6000602082019050818103600083015261335581612b4a565b9050919050565b6000602082019050818103600083015261337581612bf0565b9050919050565b6000602082019050818103600083015261339581612c30565b9050919050565b600060208201905081810360008301526133b581612c96565b9050919050565b600060208201905081810360008301526133d581612cfc565b9050919050565b600060208201905081810360008301526133f581612d62565b9050919050565b6000602082019050818103600083015261341581612e08565b9050919050565b6000602082019050818103600083015261343581612eee565b9050919050565b6000602082019050818103600083015261345581612f54565b9050919050565b60006020820190506134716000830184612fba565b92915050565b6000604051905081810181811067ffffffffffffffff8211171561349e5761349d613834565b5b8060405250919050565b600067ffffffffffffffff8211156134c3576134c2613834565b5b601f19601f8301169050602081019050919050565b60008190508160005260206000209050919050565b600081519050919050565b600081519050919050565b600082825260208201905092915050565b600082825260208201905092915050565b600081905092915050565b600061353b826136af565b9150613546836136af565b9250827fffffffffffffffffffffffffffffffffffffffffffffffffffffffffffffffff0382111561357b5761357a6137a7565b5b828201905092915050565b6000613591826136af565b915061359c836136af565b9250826135ac576135ab6137d6565b5b828204905092915050565b60006135c2826136af565b91506135cd836136af565b9250817fffffffffffffffffffffffffffffffffffffffffffffffffffffffffffffffff0483118215151615613606576136056137a7565b5b828202905092915050565b600061361c826136af565b9150613627836136af565b92508282101561363a576136396137a7565b5b828203905092915050565b60006136508261368f565b9050919050565b60008115159050919050565b60007fffffffff0000000000000000000000000000000000000000000000000000000082169050919050565b600073ffffffffffffffffffffffffffffffffffffffff82169050919050565b6000819050919050565b82818337600083830152505050565b60005b838110156136e65780820151818401526020810190506136cb565b838111156136f5576000848401525b50505050565b6000600282049050600182168061371357607f821691505b6020821081141561372757613726613805565b5b50919050565b6000613738826136af565b91507fffffffffffffffffffffffffffffffffffffffffffffffffffffffffffffffff82141561376b5761376a6137a7565b5b600182019050919050565b6000613781826136af565b915061378c836136af565b92508261379c5761379b6137d6565b5b828206905092915050565b7f4e487b7100000000000000000000000000000000000000000000000000000000600052601160045260246000fd5b7f4e487b7100000000000000000000000000000000000000000000000000000000600052601260045260246000fd5b7f4e487b7100000000000000000000000000000000000000000000000000000000600052602260045260246000fd5b7f4e487b7100000000000000000000000000000000000000000000000000000000600052604160045260246000fd5b6000601f19601f8301169050919050565b61387d81613645565b811461388857600080fd5b50565b61389481613657565b811461389f57600080fd5b50565b6138ab81613663565b81146138b657600080fd5b50565b6138c2816136af565b81146138cd57600080fd5b5056fe416e204e465420772f20494420257320686173206265656e206d696e74656420746f2025734142434445464748494a4b4c4d4e4f505152535455565758595a6162636465666768696a6b6c6d6e6f707172737475767778797a303132333435363738392b2fa26469706673582212204aec75aeffb30a21fcd4b6220757bdc897e3475537294e19846e8bee32050f3364736f6c634300080000333c73766720786d6c6e733d27687474703a2f2f7777772e77332e6f72672f323030302f73766727207072657365727665417370656374526174696f3d27784d696e594d696e206d656574272076696577426f783d273020302033353020333530273e3c7374796c653e2e62617365207b2066696c6c3a2077686974653b20666f6e742d66616d696c793a2073657269663b20666f6e742d73697a653a20323470783b207d3c2f7374796c653e3c726563742077696474683d273130302527206865696768743d2731303025272066696c6c3d27626c61636b27202f3e3c7465787420783d273530252720793d273530252720636c6173733d27626173652720646f6d696e616e742d626173656c696e653d276d6964646c652720746578742d616e63686f723d276d6964646c65273e",
  "linkReferences": {},
  "deployedLinkReferences": {}
}